:100000000C943A000C9457000C9457000C94570031
:100010000C9457000C9457000C9457000C94570004
:100020000C9457000C9457000C9457000C945700F4
:100030000C9457000C9457000C9457000C945700E4
:100040000C9457000C9457000C9457000C945700D4
:100050000C9457000C9457000C9457000C945700C4
:100060000C9457000C9457000C9457000C945700B4
:100070000C94570011241FBECFEFD4E0DEBFCDBFDC
:1000800014E0A0E0B1E0E8E5F5E102C005900D92D2
:10009000A831B107D9F724E0A8E1B4E001C01D926E
:1000A000AF32B207E1F70E94FA090C94AA0A0C9445
:1000B00000000C9494010C94B5010C949A010C94DA
:1000C000A0010C94A6010E94A6010E94A001882311
:1000D000E1F38CE291E00197F1F70E949401811124
:1000E0000C945B0008950C94BC01CF93DF9300D077
:1000F0001F92CDB7DEB78091320190913301A0916C
:10010000340189839A83AB83509A589A0E9467017D
:100110008FE690E00E94FE0081E090E00E94560190
:1001200061E070E081E090E00E9442010E942E01B7
:10013000CE0101960E947C010F900F900F90DF91ED
:10014000CF910895CF93DF93DC01FB0160E070E075
:1001500080E0C1E0D0E08417C9F09191BE01092E82
:1001600002C0660F771F0A94E2F76F5F7F4F7695A4
:1001700067956A0F7B1F02C0769567959A95E2F79F
:100180006F3F710519F010F08F5FE5CFF9016083C3
:10019000DF91CF910895E1E6F0E080E8808310825E
:1001A000A89584B7877F84BFE0E6F0E0808188610E
:1001B0008083108208951092800084E080938100F3
:1001C000109285001092840008958091840090918F
:1001D00085000895AC0180918400909185009C0178
:1001E000241B350B283E3340B0F70895209184003E
:1001F00030918500820F931F0C94EA00CF93DF9318
:100200001F92CDB7DEB79E012F5F3F4F45E065E3FC
:1002100071E00E94A20091E0980F909300019981F3
:10022000915097BD18BC95B5977039F095B5209150
:1002300000012770987F922B95BD298130E0E82F2F
:10024000F0E0EB5CFE4FC901008002C0880F991FEF
:100250000A94E2F70F90DF91CF91089585B3897FDB
:1002600085BB85B5909100019770887F892B85BDEE
:10027000089585B5887F85BD089585B382FB88275D
:1002800080F90895009719F0019741F0089584B519
:100290008F736295660F660F607C05C084B56370CE
:1002A0006295607F8F7C682B64BD0895009741F054
:1002B000019759F484B58E7F84BD84B5826002C0F5
:1002C00084B58C7F84BD81E0089580E0089514BCDE
:1002D00015BC16BC18BC84B58E7F84BD84B5826005
:1002E00084BD81E008959C01215031093093CD00F7
:1002F00081508093CC000895CF93DF93EC018881E7
:1003000099810E9473018A819BEF980F943008F0C5
:1003100088E098E19093C9008550880F8093CA00C7
:1003200081E0DF91CF9108958091C800881F8827D0
:10033000881F08958091C80085FB882780F908955B
:100340008091C80086FB882780F90895CF93C82F35
:100350000E949A018823E1F38091C8008064809311
:10036000C800C093CE00CF9108958091C80087FF48
:10037000FCCF8091CE000895CF93DF93EC0189915B
:10038000882319F00E94A601FACFDF91CF9108953A
:10039000853098F4673088F421E030E001C0220F06
:1003A0006A95EAF7E82FF0E0E75EFB4F922F909511
:1003B000808189234111822B80830895853080F4C8
:1003C000673070F421E030E001C0220F6A95EAF74F
:1003D000E82FF0E0E75EFB4F8081282381E009F4FD
:1003E00080E0089560911804E62FF0E0E75EFB4F8F
:1003F00080810E944002809118048F5F853018F43C
:10040000809318040895109218040895E9E1F4E027
:100410001082118212821382148208950E941E0299
:100420000C9406029C01FC01FF2784A1832B84A36A
:1004300095A1892F832B85A381E00895CF93DF9326
:10044000C4E4D1E0899199910E94120281E0C23501
:10045000D807C1F783E090E40E94120280E090E8A0
:100460000E94120283E090E10E94120283E090E871
:100470000E94120283E090E2DF91CF910C9412026D
:10048000E0911E04F0E0EE0FFF1FE65CFE4F2081BE
:100490003181F901FF2795A1932B95A3E4E4F1E0C5
:1004A00097E020813181D901BB2795962C919597B2
:1004B00080FF03C03095232301C0232B95962C93F6
:1004C0008695915032969111ECCFE62FF0E0EE0F29
:1004D000FF1FE65CFE4F80819181FC01FF2785A113
:1004E0009095892385A360931E0408956230710559
:1004F00019F170F46130710559F5FC01FF2724A151
:10050000392F3095922F932394A385A183231DC067
:100510006330710541F064307105D1F4FC01FF27AF
:1005200084A1892B0FC0FC01FF2784A1892B84A300
:1005300085A19095892309C0FC01FF2784A1292F5B
:100540002095822384A385A1892B85A381E008952A
:1005500080E00895E82FF0E0EE0FFF1FE15EFB4F13
:100560008081882321F0918181E0892702C080E089
:1005700090E081700895E82FF0E0EE0FFF1FE15E3C
:10058000FB4F8081811102C0818102C080E090E038
:1005900081700895E82FF0E0EE0FFF1FE15EFB4F42
:1005A00080810895E82FF0E0EE0FFF1FE15EFB4F22
:1005B000908181E0892708957F928F929F92AF92D8
:1005C000BF92CF92DF92EF92FF920F931F93CF9340
:1005D000DF93CFE1D4E052E5C52E51E0D52E66E0A1
:1005E000762E88818983F601019111916F0158015E
:1005F000BB24F50124A1E12EFF2485A190E08E21EA
:100600009F2130E02E213F21232B31F0892B51F403
:1006100033E0832E912C0DC0892B41F488248394E0
:10062000912C07C094E0892E912C03C082E0882E83
:10063000912C64E070E0C8010E94760262E070E0F4
:10064000C8010E947602872D8A95F1F7F50183A1F2
:1006500090E0E822F92281E0EF2809F080E0888329
:10066000B401C8010E9476022296F4E0C932DF0785
:1006700009F0B7CFDF91CF911F910F91FF90EF90CD
:10068000DF90CF90BF90AF909F908F907F90089514
:100690000895009789F0FC012381621B67FD09C062
:1006A000062E000C770B248130E081E0621773077F
:1006B0000CF080E08170089580E00895CF93DF937F
:1006C000FC01892B79F18181481760F59281291706
:1006D00048F59381A62FA91BA7FD24C00A2E000C64
:1006E000BB0BC481D0E0AC17BD07E4F4622F0E94BD
:1006F000180A480F858190E0BD010E94210A0696E4
:10070000242F269526952695E80FF91FE20FF11D57
:10071000808190E0477002C0959587954A95E2F7F1
:10072000817001C080E0DF91CF910895CF93DF9376
:10073000EC010E94DB009E0140E050E062E17AE7BC
:1007400080E090E00E945A0A30932C0420932B04FE
:10075000DF91CF9108958091290490912A040E94FD
:10076000EA002091290430912A0480912B04909171
:100770002C04820F931F90932A04809329040895D8
:10078000692F0C94DE0141E0611101C040E0692F46
:100790000C94C8010C94C3035F926F927F928F9266
:1007A0009F92AF92BF92CF92DF92EF92FF920F9300
:1007B0001F93CF93DF93562E872E942E5C01E62E47
:1007C000F72EC62F660FDD0BC81BD10987FDD39509
:1007D000072F770F110B091B110997FD1395D7FFF1
:1007E00003C077247A9402C07724739417FF03C060
:1007F00066246A9402C066246394D7FF03C0D1952F
:10080000C195D10917FF03C0119501951109C017B2
:10081000D107A4F06E01D594C794F92EA51411F157
:10082000692D8A2D9F2D0E94C303C01AD10AD7FEBD
:1008300003C0CC0EDD1EF60CA70CF0CF6801D594DA
:10084000C794E82EB81471F0692D8E2D9B2D0E944F
:10085000C303CC1ADD0AD7FE03C0C00ED11EE70CBD
:10086000B60CF0CF692DC701DF91CF911F910F9189
:10087000FF90EF90DF90CF90BF90AF909F908F90C0
:100880007F906F905F900C94C303FF920F931F9320
:10089000CF93DF93D82FF92E162FC72F042F792F40
:1008A0000E94CC03402F6D2F7C2F8D2F9F2D0E94F7
:1008B000CC03402F612F7C2F812F9F2D0E94CC03D2
:1008C000402F612F7C2F8D2F9C2F0E94CC03DF9116
:1008D000CF911F910F91FF9008950E940602E1E0D1
:1008E000F1E0118A14860895DF92EF92FF920F9340
:1008F0001F93CF93DF93D82E7B01162F0F2D80915E
:10090000030190910401D0E0019799F50F2D0D1B83
:10091000E0910901F0910A018181C0E0D817B8F493
:100920008091090190910A01FC012281C21768F4AB
:100930002C2F4D2F6D2D0E945E03682F8E2D8C0F56
:10094000902F0E94C303CF5FEBCFDF5FDFCFE0913B
:100950000901F0910A018281C81740F460E08E2DF0
:100960008C0F902F0E94C303CF5FF1CF015030C096
:10097000DF5F1E2D1D0FE0910901F0910A018181B9
:10098000C0E0D817A8F48091090190910A01FC01F8
:100990002281C21768F72C2F4D2F6D2D0E945E0308
:1009A000682F812F9F2D9C0F0E94C303CF5FEBCF39
:1009B000E0910901F0910A018281C81740F460E0DA
:1009C000812F9F2D9C0F0E94C303CF5FF1CF1F5F2C
:1009D000812F902FDF91CF911F910F91FF90EF907A
:1009E000DF9008950F931F93CF938C01C0E0F8011F
:1009F00081918F01882341F00E947404BC01CF5F74
:100A0000853014F477FFF3CF8C2FCF911F910F9186
:100A100008950F931F93CF93DF9310920D0140938E
:100A20000E01109211010091090110910A010115A6
:100A3000110509F449C09B01EC01F8018181609125
:100A400007017091080190E00E94210ABC01809189
:100A50000B0190910C010E94320ACB016AE070E018
:100A60000E94210A9093100180930F013093060198
:100A70002093050140E250E0BE0182E191E00E9436
:100A80009B0A80910101909102010197E9F4FE0116
:100A900001900020E9F73197BF016C1B7D0BF80135
:100AA00081818F5F0E94180A81502091030130914B
:100AB00004012130310511F095E001C097E098174D
:100AC00018F48EEF80931101DF91CF911F910F9158
:100AD000089520910301309104012130310511F076
:100AE00070E001C076E04FEF60E00E9409050895D4
:100AF00090E090930801809307010895909302017C
:100B00008093010108959093040180930301089557
:100B100090930A0180930901089580912D0490918A
:100B20002E04019690932E0480932D0420910F01A2
:100B3000309110018217930708F469C010922E04B7
:100B400010922D04E0910D01F0E0EF5FFE4F8189DE
:100B500081110AC080910E01823008F458C0815082
:100B600080930E0110920D0180910D0190E0FC0127
:100B7000EF5FFE4F2189222309F449C04091010112
:100B800050910201209111014115510521F0413090
:100B9000510599F024C0211122C060910501709186
:100BA00006018E5E9E4F0E94F20490E001979091A4
:100BB0000D01890F80930D0112C0609105017091A4
:100BC000060140910301509104014130510511F497
:100BD000720F01C0621B8E5E9E4F0E94F2048091D4
:100BE00011018F5F80931101082E000C990BE09189
:100BF0000901F0910A01218130E0281739073CF4FE
:100C00001092110180910D018F5F80930D010C9462
:100C1000F201CF93DF93C1E0D1E09B878A870E94E6
:100C20000E0284E190E09F838E83DF91CF910C943C
:100C30006D048130910529F0029731F48CE693E040
:100C400005C082E793E002C087E593E00C94690554
:100C50008130910521F0029721F484E5089583E520
:100C6000089587E408958153843048F4E82FF0E034
:100C7000E45AFE4F8081082E000C990B089580E005
:100C800090E00895833571F0843541F0873499F40C
:100C900081E090E0633589F480E00895633559F48C
:100CA00083E00AC0643521F0633529F482E004C092
:100CB0008FEF9FEF089581E090E008959C01FC0183
:100CC000FF2795A1892F832B85A308959C01FC0103
:100CD000FF2795A1832F8095892385A308959C01E3
:100CE000FC01FF2784A1832B84A395A1892F832B4B
:100CF00085A381E0089580E090E40E946F0680E083
:100D000090E20E946F0680E090E10E946F0680E012
:100D100098E00E946F0680E094E00E946F0680E0F9
:100D200092E00E946F0680E091E00E946F0683E0EF
:100D300090E40E946F0680E090E80E946F0683E0D6
:100D400090E10E946F0683E090E80E946F0683E0C6
:100D500090E20C946F060E947B0680E090E40E9473
:100D60005E0680E090E20E945E0680E090E10E94D4
:100D70005E0680E098E00E945E0680E094E00E94BB
:100D80005E0680E092E00E945E0680E091E00E94B4
:100D90005E0683E090E40E945E0680E090E80E9498
:100DA0005E0683E090E10E945E0683E090E80E9488
:100DB0005E0683E090E20C945E06CF93DF9300D052
:100DC000CDB7DEB789831A82CE0101960E946905EC
:100DD0000F900F90DF91CF9108950E947B0680E0E5
:100DE00090E40E94660680E090E20E94660680E041
:100DF00090E10E94660680E098E00E94660680E02E
:100E000094E00E94660680E092E00E94660680E020
:100E100091E00E94660683E090E40E94660680E00E
:100E200090E80E94660683E090E10E94660683E0F7
:100E300090E80E94660683E090E20C946606CF93E9
:100E4000DF9388EB9BE00E9409060E946D041092DC
:100E5000800085E08093810010928200D0E0C0E0A5
:100E600080918400909185008D32914078F00E94AD
:100E70008D0561E0CE010E94C303CF5FC73011F43E
:100E8000DF5FC0E01092850010928400D73041F7F8
:100E900081E090E0DF91CF910895CF93DF9388EBCD
:100EA0009BE00E9409060E946D04D0E0C0E00E9411
:100EB0008D0561E0CE010E94C303CF5FC73011F4FE
:100EC000DF5FC0E01092850010928400D83079F77F
:100ED0000E946D0481E090E0DF91CF9108950F931F
:100EE0001F93CF93DF93CDB7DEB7A4970FB6F894D7
:100EF000DEBF0FBECDBF1092800085E080938100E1
:100F0000109282000E94CB000E94780882E2E3E8FF
:100F1000F3E0DE01119601900D928A95E1F780E2EF
:100F200090E09CA38BA3CE0101960E9469051092CC
:100F300085001092840000E010E080918400909180
:100F400085008133924F30F00F5F1F4F1092850064
:100F500010928400063011055CF00E94ED06063008
:100F6000110531F4CE0183960E94690507E010E077
:100F70000E948D050E94DC0284E00E94AA02882360
:100F8000E1F20E94AB0681E090E0A4960FB6F894DF
:100F9000DEBF0FBECDBFDF91CF911F910F9108959E
:100FA000CF93C82F0E94CB000E944E081092800061
:100FB00085E080938100109282001092850010924B
:100FC000840080918400909185008031974210F4D4
:100FD00087E40FC080918400909185008131974211
:100FE00058F080918400909185008033954720F4DB
:100FF0008C2F0E94DD0604C01092850010928400A0
:101000000E948D050E94DC0284E00E94AA028823CF
:10101000C1F281E090E0CF9108951F93CF93DF93C9
:10102000C82F162FD42F0E94CB000E946108C33016
:1010300049F0CF3F51F015335CF4D53364F08FEFB6
:1010400093E00BC085EA93E008C08EEB93E005C007
:1010500087ED93E002C08EEE93E00E946905109246
:101060008500109284000E94DC020E948D0584E0BD
:101070000E94AA028823B9F381E090E0DF91CF912A
:101080001F9108959C01FC01FF2784A1832B84A359
:1010900095A1892F832B85A381E0089588EB9BE0A0
:1010A0000E94960388EB9BE00E94090680E691E08F
:1010B0000E94880584E60E94780580E090E00C9408
:1010C000830584EF91E00E94960384EF91E00E94F3
:1010D000090689EC92E00E94880581E090E00E9478
:1010E000830583E00E94780581E090E00C947E0502
:1010F0000C94610880E090E40E94420880E090E255
:101100000E94420880E090E10E94420880E098E05E
:101110000E94420880E094E00E94420880E092E051
:101120000E94420880E091E00E94420883E090E43F
:101130000E94420880E090E80E94420883E090E12B
:101140000E94420883E090E80E94420883E090E217
:101150000C944208AF92BF92CF92DF92EF92FF922F
:101160000F931F93CF93DF931092800085E08093BD
:101170008100109282000E9475000E94480388EB53
:101180009BE00E949603C0E3D0E323E0E22EF12C23
:1011900032E3C32ED12C0E94CB000E944E0800E007
:1011A00010E097E4B92E0E94AB030E948D050E94C7
:1011B000DC028B2D0E94DD0680E00E94AA028823BB
:1011C00031F0C8010196B7010E94460A8C0182E005
:1011D0000E94AA02882351F0C8010197B7010E941A
:1011E000460A8C01892B11F403E010E084E00E9490
:1011F000AA02882379F00E94AB060E946D040E9427
:101200008D05109285001092840000E010E080E3CC
:10121000A82E1FC0C8010E942806B82EC4CF0E9465
:101220008D050E945900882319F00E945B00A82EAA
:1012300027E4A216A9F08DEA8A0D823088F00E9478
:10124000DC0284E00E94AA02882319F08B2D0E9400
:1012500063000115110519F70E941F078C01F9CFD2
:101260008091840090918500069748F38B2D0E9411
:1012700063000E94AB060E946D040E948D050E94CF
:101280004D070E94AB060E946D040E948D050E94CE
:101290004D076A2D8B2D0E9442068C0187E4B812FF
:1012A00001C0CF5F27E4A21201C0DF5F0E941F07C9
:1012B0000F3F2FEF120719F00330110549F40E9478
:1012C000AB060E946D040F3F8FEF180741F40AC070
:1012D0001092850010928400892B41F30DC00330D9
:1012E000110551F40E94AB060E946D040F3F2FEFD1
:1012F000120709F06CC052C00E948D05D0E2429ADC
:101300000E94DC020E948D050E945900882319F07A
:101310000E945B00D82F80ED8D0F8630E8F480911D
:10132000840090918500C397B8F08C2F0E946300D1
:101330000E94AB060E946D040E948D050E944D071D
:10134000D0928500C092840042988C2F0E94630046
:1013500083E5A81213C009C084E00E94AA02882372
:1013600071F28C2F0E946300CACF23E5B21671F090
:101370008C2F0E943306D80FC0E308C083E5B81253
:1013800005C08D2F0E943306C80FD0E30E94DC02F7
:101390008C2F0E94D007892BD9F305C00E94AB0681
:1013A0000E946D0408C00E94AB060F3F2FEF12078A
:1013B00011F0C53344F04D2F6C2F802F0E940D0883
:1013C000892BC9F30AC0D5330CF4E5CEF4CF033032
:1013D000110521F30E94AB06ECCF81E090E0DF9194
:1013E000CF911F910F91FF90EF90DF90CF90BF9022
:1013F000AF9008950E94CB000E9478080E94480395
:1014000085E493E00E9469050E948D050E94DC023C
:1014100084E00E94AA028823B9F30E946D040E940E
:101420006F07892BE1F30E94AA08892BE1F3E8CF2B
:10143000002480FD060E660F11F08695D1F7802DF1
:1014400008950024552704C0080E591F880F991FBE
:10145000009729F076956795B8F37105B9F7802D57
:10146000952F0895AA1BBB1B51E107C0AA1FBB1FE4
:10147000A617B70710F0A61BB70B881F991F5A9520
:10148000A9F780959095BC01CD01089597FB072E93
:1014900016F4009407D077FD09D00E94320A07FCA9
:1014A00005D03EF4909581959F4F08957095619574
:1014B0007F4F0895052E97FB1EF400940E94710A39
:1014C00057FD07D00E94790A07FC03D04EF40C9414
:1014D000710A50954095309521953F4F4F4F5F4F82
:1014E000089590958095709561957F4F8F4F9F4F90
:1014F0000895A1E21A2EAA1BBB1BFD010DC0AA1F55
:10150000BB1FEE1FFF1FA217B307E407F50720F06C
:10151000A21BB30BE40BF50B661F771F881F991FE7
:101520001A9469F760957095809590959B01AC0130
:10153000BD01CF010895FB01DC014150504048F04E
:1015400001900D920020C9F701C01D9241505040FA
:08155000E0F70895F894FFCFC5
:10155800010000000000001400000000000000006E
:101568000000000000000000000000000000000073
:101578000000000000000000000000000000000063
:101588000000D00008000306080A0340008003108A
:10159800038003200040002000100008000400021F
:1015A80000010380034003200080031001020304AC
:1015B80001050720470500000000000000000000AA
:1015C8000000000000000000000000000000000013
:1015D8000000000000000000000000000000000003
:1015E80000000000000000000000000000000000F3
:1015F80000000000000000000000000000000200E1
:101608000000000000002EE63AA303C4104288033D
:101618002E4244C4071F1104A30388A9F411023FF2
:101628003C08A3034C8417A3031F224208012F463A
:1016380017A3032E460F91010000000000000000D0
:1016480000000000000000000000000041104444B9
:10165800002E4244000100000000002EC6F863047A
:101668004F4A27E5032E8610A2034F4A29E5033F78
:10167800841FC2073F841742002E861CA30731C669
:101688001F63048E104288031C21849201319551F6
:101698005204218410C20771D71A630471CE9A7359
:1016A800042EC618A3032FC61742002EC658D3050A
:1016B8002FC65752042E0607A3039F104208013174
:1016C800C618A30331C618150131C65A7704312A42
:1016D800A2620431464508011F2222C20700000009
:1016E80000000000000000000000000000000000F2
:1016F80000000000000000000000000000000000E2
:1017080000000000000000000000000000000000D1
:10171800000000002E86F04300010305203B020074
:10172800009220EB737D5FDE3DA552EA7A14004AF1
:10173800222229BA2ED0050014C0010020A4126A62
:101748002B9A74A372A338ED498F38CE2AA712AA10
:101758002AAE49100410145444380E11152A2500D5
:1017680000EA5BEB3A4F726B3BCF73CF134F7AEDC6
:101778005B9774247B5D564972FD5B6F5B6F7BEFF3
:10178800136F7FEF57CE3897246D7B6D2BED5FADD0
:101798005AAD24A77220474F4C4420545241502040
:1017A800535445414C210020504150455220534349
:1017B8004953534F525320524F434B0020515549E0
:1017C800540020474F4C4420545241502053544514
:1017D800414C00494620414C4C204C454453204F35
:1017E800522054455854205055534820444F574E82
:1017F800204E415600594F552054524150504544AF
:10180800205448454D20594F552057494E00594FAF
:101818005520474F54205452415050454420594F69
:1018280055204C4F534500594F5520474F542035AC
:1018380020474F4C4420594F552057494E00696E58
:101848007669616C6420456E642047616D6500545B
:1018580048455920474F54203520474F4C4420597C
:081868004F55204C4F53450081
:00000001FF
