:100000000C943A000C9457000C9457000C94570031
:100010000C9457000C9457000C9457000C94570004
:100020000C9457000C9457000C9457000C945700F4
:100030000C9457000C9457000C9457000C945700E4
:100040000C9457000C9457000C9457000C945700D4
:100050000C9457000C9457000C9457000C945700C4
:100060000C9457000C9457000C9457000C945700B4
:100070000C94570011241FBECFEFD4E0DEBFCDBFDC
:1000800014E0A0E0B1E0EAEEF5E102C005900D92C7
:10009000A631B107D9F724E0A6E1B4E001C01D9272
:1000A000AD32B207E1F70E94430A0C94F30A0C94B4
:1000B00000000C9491010C94B2010C9497010C94E3
:1000C0009D010C94A3010E94A3010E949D0188231D
:1000D000E1F38CE291E00197F1F70E949101811127
:1000E0000C945B0008950C94B901CF93DF9300D07A
:1000F0001F92CDB7DEB780ED90E09A83898388E0C8
:100100008B83509A589A0E9464018FE690E00E9477
:10011000FB0081E090E00E94530161E070E081E02B
:1001200090E00E943F010E942B01CE0101960E94A7
:1001300079010F900F900F90DF91CF910895CF9399
:10014000DF93DC01562FFB0160E070E0C1E0D0E0FE
:100150008E2F851B8417B8F49191BE01092E02C021
:10016000660F771F0A94E2F76F5F7F4F769567956A
:100170006A0F7B1F02C0769567959A95E2F76F3FED
:10018000710509F028F7F9016083DF91CF91089597
:10019000E1E6F0E080E880831082A89584B7877F4D
:1001A00084BFE0E6F0E0808188618083108208955A
:1001B0001092800084E0809381001092850010925C
:1001C0008400089580918400909185000895AC0189
:1001D00080918400909185009C01241B350B283E62
:1001E0003340B0F708952091840030918500820F4C
:1001F000931F0C94E700CF93DF931F92CDB7DEB728
:100200009E012F5F3F4F45E062E371E00E949F0037
:1002100091E0980F909300019981915097BD18BC7F
:1002200095B5977039F095B5209100012770987FAA
:10023000922B95BD298130E0E82FF0E0EE5CFE4F77
:10024000C901008002C0880F991F0A94E2F70F903D
:10025000DF91CF91089585B3897F85BB85B5909156
:1002600000019770887F892B85BD089585B5887FAB
:1002700085BD089585B382FB882780F9089500978E
:1002800019F0019741F0089584B56295660F660FE5
:10029000607C8F7305C084B563706295607F8F7CCE
:1002A000682B64BD0895009741F0019759F484B517
:1002B0008E7F84BD84B5826002C084B58C7F84BD8E
:1002C00081E0089580E0089514BC15BC16BC18BCEC
:1002D00084B58E7F84BD84B5826084BD81E008953D
:1002E0009C01215031093093CD0081508093CC0086
:1002F0000895CF93DF93EC01888199810E9470016A
:100300008A819BEF980F943008F088E098E19093F1
:10031000C9008550880F8093CA0081E0DF91CF919A
:1003200008958091C800881F8827881F08958091AC
:10033000C80085FB882780F908958091C80086FB56
:10034000882780F90895CF93C82F0E9497018823AA
:10035000E1F39091C80090649093C800C093CE00E0
:10036000CF9108958091C80087FFFCCF8091CE0087
:100370000895CF93DF93EC018991882319F00E94AF
:10038000A301FACFDF91CF910895853098F46730BB
:1003900088F421E030E001C0220F6A95EAF7E82FE7
:1003A000F0E0E95EFB4F922F909580818923411107
:1003B000822B80830895853080F4673070F4E82FB5
:1003C000F0E0E95EFB4F81E090E001C0880F6A95A4
:1003D000EAF79081982381E009F480E00895609124
:1003E0001604E62FF0E0E95EFB4F80810E943D029B
:1003F000809116048F5F853018F480931604089559
:10040000109216040895E7E1F4E01082118212823E
:100410001382148208950E941B020C9403029C0113
:10042000FC01FF2784A1832B84A395A1892F832B13
:1004300085A381E00895CF93DF93C1E4D1E0899152
:1004400099910E940F0281E0CF34D807C1F783E071
:1004500090E40E940F0280E090E80E940F0283E087
:1004600090E10E940F0283E090E80E940F0283E077
:1004700090E2DF91CF910C940F02E0911C04F0E028
:10048000EE0FFF1FE95CFE4F20813181F901FF274C
:1004900095A1932B95A3E1E4F1E097E020813181D0
:1004A000D901BB2795962C91959780FF03C0309575
:1004B000232301C0232B95962C9386959150329639
:1004C0009111ECCFE62FF0E0EE0FFF1FE95CFE4F3D
:1004D00080819181FC01FF2785A19095892385A3C7
:1004E00060931C0408956230710511F168F4613065
:1004F000710551F5FC01FF2724A1892F8095922FCA
:10050000982394A395A112C06330710541F0643023
:100510007105D1F4FC01FF2784A1892B0FC0FC01D8
:10052000FF2784A1892B84A385A19095892309C0E5
:10053000FC01FF2724A1892F8095822384A385A114
:10054000892B85A381E0089580E00895E82FF0E0ED
:10055000EE0FFF1FE35EFB4F8081882321F0918126
:1005600081E0892702C080E090E081700895E82F43
:10057000F0E0EE0FFF1FE35EFB4F8081811102C0B0
:10058000818102C080E090E081700895E82FF0E062
:10059000EE0FFF1FE35EFB4F80810895E82FF0E030
:1005A000EE0FFF1FE35EFB4F908181E089270895E6
:1005B0006F927F928F929F92AF92BF92CF92DF9273
:1005C000EF92FF920F931F93CF93DF9300D0CDB79D
:1005D000DEB72DE1622E24E0722E3FE4C32E31E01F
:1005E000D32E812C46E0942EF30180818183F60185
:1005F000019111916F015801BB24F50184A1E12EF5
:10060000FF2425A130E02E213F2141E0232B09F4D6
:1006100040E090E08E219F21892B29F0411108C0F4
:1006200023E030E00AC0411106C021E030E005C0FF
:1006300024E030E002C022E030E064E070E0C80175
:1006400029833A830E94730262E070E0C8010E942D
:100650007302892D8A95F1F7F50183A190E0E822D4
:10066000F92281E029813A81EF2809F080E0F30145
:100670008083B901C8010E9473028394F2E06F0E77
:10068000711C85E08812B0CF0F900F90DF91CF9151
:100690001F910F91FF90EF90DF90CF90BF90AF90A0
:1006A0009F908F907F906F9008950895009789F0A4
:1006B000FC012381621B67FD09C0062E000C770B2D
:1006C000248130E081E0621773070CF080E08170D4
:1006D000089580E00895CF93DF93FC01A62F822F29
:1006E000309771F16181461758F59281291740F5CD
:1006F0009381A91BA7FD24C00A2E000CBB0BC4814B
:10070000D0E0AC17BD07E4F40E94610A480F658190
:1007100070E0CD010E946A0A0696242F2695269540
:100720002695E80FF91FE20FF11D9081892F90E0C7
:10073000477002C0959587954A95E2F7817001C090
:1007400080E0DF91CF910895CF93DF93EC010E9479
:10075000D8009E0140E050E062E17AE780E090E05E
:100760000E94A30A30932A0420932904DF91CF9199
:10077000089580912704909128040E94E700209119
:100780002704309128048091290490912A04820F33
:10079000931F9093280480932704089541E06111EA
:1007A00001C040E0692F0C94C501692F0C94DB0156
:1007B00041E0611101C040E0692F0C94C5014F92E6
:1007C0005F926F927F928F929F92AF92BF92CF92E1
:1007D000DF92EF92FF920F931F93CF93DF931F92BD
:1007E000CDB7DEB7862E942E5C01E62EF72E262F8F
:1007F000660F330B281B310987FD3395072F072E12
:10080000000C110B091B110997FD139537FF03C04D
:1008100077247A9402C07724739417FF03C0662468
:100820006A9402C066246394290137FF03C051947F
:100830004194510817FF03C0119501951109401605
:100840005106A4F06201D594C794F92EA81421F1A1
:10085000692D8A2D9F2D0E94D803C01AD10AD7FE78
:1008600003C0C40CD51CF60CA70CF0CF6801D594BE
:10087000C794E82EB71681F0692D8E2D9B2D7983B4
:100880000E94D803C418D5087981D7FE03C0C00ED2
:10089000D11EE70CB60CEECF692DC7010F90DF918A
:1008A000CF911F910F91FF90EF90DF90CF90BF906D
:1008B000AF909F908F907F906F905F904F900C942F
:1008C000D803FF920F931F93CF93DF93D82FF92E66
:1008D000162FC72F042F792F0E94DF03402F6D2F73
:1008E0007C2F8D2F9F2D0E94DF03402F612F7C2FA7
:1008F000812F9F2D0E94DF03402F612F7C2F8D2F92
:100900009C2F0E94DF03DF91CF911F910F91FF90E9
:1009100008950E940302E1E0F1E0118A148608952F
:10092000DF92EF92FF920F931F93CF93DF93D82E16
:100930007B01162F0F2D8091030190910401C0E0DF
:100940000197A1F50F2D0C1BE0910901F0910A010F
:100950008181C817C0F4D0E08091090190910A010B
:10096000FC012281D21768F42D2F4C2F6D2D0E948F
:100970006B03682F8D2F8E0D902F0E94D803DF5FA1
:10098000EBCFCF5FDFCFC0E0E0910901F0910A012A
:100990008281C81740F460E08C2F8E0D902F0E944A
:1009A000D803CF5FF1CF015031C0CF5F1C2F1E0D98
:1009B000E0910901F0910A018181C817B0F4D0E0FB
:1009C0008091090190910A01FC012281D21768F7F8
:1009D0002D2F4C2F6D2D0E946B03682F812F9D2F83
:1009E0009F0D0E94D803DF5FEBCFC0E0E0910901CB
:1009F000F0910A018281C81740F460E0812F9C2F9A
:100A00009F0D0E94D803CF5FF1CF1F5F812F902FE2
:100A1000DF91CF911F910F91FF90EF90DF9008959C
:100A20001F93CF93DF93182FEC018C2F811B99918B
:100A3000992351F0892F0E949004BC018C2F811BB7
:100A4000653014F477FFF1CFDF91CF911F910895B6
:100A50000F931F93CF93DF93EC019B0110920D0135
:100A600040930E01109211010091090110910A01A9
:100A70000115110509F449C0F80181816091070150
:100A80007091080190E00E946A0ABC0180910B01FC
:100A900090910C010E947B0ACB016AE070E00E94F9
:100AA0006A0A9093100180930F01309306012093FE
:100AB000050140E250E0BE0182E191E00E94E40ABB
:100AC00080910101909102010197F9F4FE010190DA
:100AD0000020E9F7CF010197F8019181692F70E0BB
:100AE0006F5F7F4F8C1B0E94610A81502091030130
:100AF000309104012130310511F095E001C097E0FB
:100B0000981718F48EEF80931101DF91CF911F9108
:100B10000F91089520910301309104012130310596
:100B200011F070E001C076E04FEF60E00E94280510
:100B3000089590E0909308018093070108959093A1
:100B400002018093010108959093040180930301B1
:100B5000089590930A0180930901089580912B04D0
:100B600090912C04019690932C0480932B04209157
:100B70000F01309110018217930708F469C0109299
:100B80002C0410922B04E0910D01F0E0EF5FFE4F7A
:100B9000818981110AC080910E01823008F458C009
:100BA000815080930E0110920D0180910D0190E013
:100BB000FC01EF5FFE4F2189222309F449C04091D7
:100BC000010150910201209111014115510521F0BF
:100BD0004130510599F024C0211122C060910501D6
:100BE000709106018E5E9E4F0E94100590E0019765
:100BF00090910D01890F80930D0112C06091050144
:100C0000709106014091030150910401413051055A
:100C100011F4720F01C0621B8E5E9E4F0E94100580
:100C2000809111018F5F80931101082E000C990BA8
:100C3000E0910901F0910A01218130E0281739077C
:100C40003CF41092110180910D018F5F80930D0192
:100C50000C94EF01CF93DF93C1E0D1E09B878A87AB
:100C60000E940B0284E190E09F838E83DF91CF91FD
:100C70000C9489048130910529F0029731F489E6BA
:100C800093E005C08FE693E002C084E593E00C9406
:100C90008A058130910521F0029721F484E50895B9
:100CA00083E5089587E408958153843048F4E82F5C
:100CB000F0E0E75AFE4F8081082E000C990B089552
:100CC00080E090E00895833571F0843541F08734F9
:100CD00099F481E090E0633589F480E0089563350C
:100CE00059F483E00AC0643521F0633529F482E0C9
:100CF00004C08FEF9FEF089581E090E008959C017C
:100D0000FC01FF2795A1892F832B85A308959C01C2
:100D1000FC01FF2795A1832F8095892385A3089542
:100D20009C01FC01FF2784A1832B84A395A1892F1B
:100D3000832B85A381E0089580E090E40E949006D3
:100D400080E090E20E94900680E090E10E94900690
:100D500080E098E00E94900680E094E00E94900677
:100D600080E092E00E94900680E091E00E94900670
:100D700083E090E40E94900680E090E80E94900654
:100D800083E090E10E94900683E090E80E94900644
:100D900083E090E20C9490060E949C0680E090E430
:100DA0000E947F0680E090E20E947F0680E090E152
:100DB0000E947F0680E098E00E947F0680E094E039
:100DC0000E947F0680E092E00E947F0680E091E032
:100DD0000E947F0683E090E40E947F0680E090E816
:100DE0000E947F0683E090E10E947F0683E090E806
:100DF0000E947F0683E090E20C947F06CF93DF93FE
:100E000000D0CDB7DEB789831A82CE0101960E9449
:100E10008A050F900F90DF91CF9108950E949C0654
:100E200080E090E40E94870680E090E20E948706BE
:100E300080E090E10E94870680E098E00E948706AB
:100E400080E094E00E94870680E092E00E9487069E
:100E500080E091E00E94870683E090E40E9487068C
:100E600080E090E80E94870683E090E10E94870678
:100E700083E090E80E94870683E090E20C94870666
:100E8000CF93DF9388EB9BE00E942A060E9489049F
:100E90001092800085E08093810010928200D0E063
:100EA000C0E080918400909185008D32914078F06F
:100EB0000E94AE0561E0CE010E94D803CF5FC7302B
:100EC00011F4DF5FC0E01092850010928400D730EB
:100ED00041F781E090E0DF91CF910895CF93DF93C8
:100EE00088EB9BE00E942A060E948904D0E0C0E0C3
:100EF0000E94AE0561E0CE010E94D803CF5FC730EB
:100F000011F4DF5FC0E01092850010928400D830A9
:100F100079F70E94890481E090E0DF91CF910895F4
:100F20000F931F93CF93DF93CDB7DEB7A4970FB680
:100F3000F894DEBF0FBECDBF1092800085E0809395
:100F40008100109282000E94C8000E948A0882E2FA
:100F5000E0E8F3E0DE01119601900D928A95E1F749
:100F600080E290E09CA38BA3CE0101960E948A05AB
:100F7000109285001092840000E010E080918400BF
:100F8000909185008133924F30F00F5F1F4F109288
:100F9000850010928400063011055CF00E940E0757
:100FA0000630110531F4CE0183960E948A0507E0D0
:100FB00010E00E94AE050E94D80284E00E94A602C2
:100FC0008823E1F20E94CC0681E090E0A4960FB65F
:100FD000F894DEBF0FBECDBFDF91CF911F910F916F
:100FE0000895CF93C82F0E94C8000E9477081092DE
:100FF000800085E08093810010928200109285002D
:1010000010928400809184009091850080319742F5
:1010100010F487E40FC080918400909185008131A5
:10102000974258F0809184009091850080339547D5
:1010300020F48C2F0E94FE0604C0109285001092AE
:1010400084000E94AE050E94D80284E00E94A6029D
:101050008823C1F281E090E0CF910895CF93DF9390
:1010600000D01F92CDB7DEB74B836A8389830E947D
:10107000C8000E94A10889814B816A81833049F0B0
:101080008F3F51F065335CF4453364F08CEF93E0AF
:101090000BC082EA93E008C08BEB93E005C084EDBF
:1010A00093E002C08BEE93E00E948A0510928500C7
:1010B000109284000E94D8020E94AE0584E00E9433
:1010C000A6028823B9F381E090E00F900F900F9073
:1010D000DF91CF9108959C01FC01FF2784A1832B10
:1010E00084A395A1892F832B85A381E0089588EBA4
:1010F0009BE00E94A40388EB9BE00E942A068DE5FA
:1011000091E00E94A90584E60E94990580E090E0A4
:101110000C94A40584EF91E00E94A40384EF91E075
:101120000E942A0686EC92E00E94A90581E090E0E8
:101130000E94A40583E00E94990581E090E00C9450
:101140009F0584EF91E00E94A40384EF91E00E9448
:101150002A0686EC92E00E94A90581E090E00E94B8
:10116000A40583E00E94990581E090E00C949F051E
:1011700080E090E40E946B0880E090E20E946B089F
:1011800080E090E10E946B0880E098E00E946B088C
:1011900080E094E00E946B0880E092E00E946B087F
:1011A00080E091E00E946B0883E090E40E946B086D
:1011B00080E090E80E946B0883E090E10E946B0859
:1011C00083E090E80E946B0883E090E20C946B0847
:1011D000CF92DF92EF92FF920F931F93CF93DF9303
:1011E0001092800085E080938100109282000E941E
:1011F00075000E94550388EB9BE00E94A403D0E396
:10120000C0E392E3C92ED12C0E94C8000E94770847
:101210000E94FE09F82E109285001092840000E0D2
:1012200010E080E3E82E0115110521F40E9440072B
:101230008C01F9CF0E94AE050E945900882319F055
:101240000E945B00E82E27E4E21621F08DEA8E0D65
:10125000823018F580918400909185000697E8F01F
:101260008F2D0E9463000E94CC060E9489040E9478
:10127000AE050E946E070E94CC060E9489040E945F
:10128000AE050E946E076E2D8F2D0E9463068C01A5
:1012900087E4F8120EC0DF5F0CC00E94D80284E021
:1012A0000E94A602882309F4BECF8F2D0E946300FE
:1012B000BACF27E4E21201C0CF5F0E9440070F3F80
:1012C0002FEF120719F00330110549F40E94CC06E4
:1012D0000E9489040F3F8FEF180741F40AC0109253
:1012E000850010928400892B41F30DC00330110555
:1012F00051F40E94CC060E9489040F3F2FEF120781
:1013000009F06BC052C00E94AE05C0E2429A0E9432
:10131000D8020E94AE050E945900882319F00E944D
:101320005B00C82F80ED8C0F8630E8F4809184003C
:1013300090918500C397B8F08D2F0E9463000E94A2
:10134000CC060E9489040E94AE050E946E07D092CE
:101350008500C092840042988D2F0E94630083E52F
:10136000E81213C009C084E00E94A602882371F22B
:101370008D2F0E946300CACF23E5F21671F08D2FE6
:101380000E945406C80FD0E308C083E5F81205C0D8
:101390008C2F0E945406D80FC0E30E94D8028D2FD4
:1013A0000E94F107892BD9F305C00E94CC060E9448
:1013B00089040BC00E94CC060F3F2FEF120729F0C3
:1013C000D5331CF4C5330CF41FCF4C2F6D2F802F59
:1013D0000E942E08892BC9F306C00330110529F39A
:1013E0000E94CC06EDCF81E090E0DF91CF911F917C
:1013F0000F91FF90EF90DF90CF900895EF92FF92C2
:101400001F93CF93DF9317E4C0E0D0E083E0E82E92
:10141000F12C0E94B9030E94AE050E94D802812FD0
:101420000E94FE0680E00E94A602882331F0CE01D1
:101430000196B7010E948F0AEC0182E00E94A60289
:10144000882351F0CE010197B7010E948F0AEC0169
:10145000892B11F4C3E0D0E084E00E94A602811140
:1014600005C0CE010E944906182FD3CF0E94CC069A
:101470000E9489040E94AE05812FDF91CF911F91B8
:10148000FF90EF9008950E94C8000E948A080E9471
:10149000550382E493E00E948A050E94AE050E94F3
:1014A000D80284E00E94A6028823B9F30E9489042E
:1014B0000E949007892BE1F30E94E808892BE1F351
:1014C000E8CF002480FD060E660F11F08695D1F757
:1014D000802D08950024552704C0080E591F880F39
:1014E000991F009729F076956795B8F37105B9F7BC
:1014F000802D952F0895AA1BBB1B51E107C0AA1F81
:10150000BB1FA617B70710F0A61BB70B881F991FA4
:101510005A95A9F780959095BC01CD01089597FB48
:10152000072E16F4009407D077FD09D00E947B0A9D
:1015300007FC05D03EF4909581959F4F08957095D6
:1015400061957F4F0895052E97FB1EF400940E942D
:10155000BA0A57FD07D00E94C20A07FC03D04EF416
:101560000C94BA0A50954095309521953F4F4F4FB6
:101570005F4F089590958095709561957F4F8F4F3F
:101580009F4F0895A1E21A2EAA1BBB1BFD010DC09F
:10159000AA1FBB1FEE1FFF1FA217B307E407F50723
:1015A00020F0A21BB30BE40BF50B661F771F881FFF
:1015B000991F1A9469F760957095809590959B0195
:1015C000AC01BD01CF010895FB01DC014150504049
:1015D00048F001900D920020C9F701C01D924150C2
:0A15E0005040E0F70895F894FFCFA3
:1015EA0001000000000000140000000000000000DC
:1015FA0000000000000000000000000000000000E1
:10160A0000000000000000000000000000000000D0
:10161A000000000306080A03400080031003800349
:10162A00200040002000100008000400020001030E
:10163A008003400320008003100102030401050710
:10164A002047050000000000000000000000000024
:10165A000000000000000000000000000000000080
:10166A000000000000000000000000000000000070
:10167A000000000000000000000000000000000060
:10168A00000000000000000000000002000000004E
:10169A000000002EE63AA303C4104288032E4244F7
:1016AA00C4071F1104A30388A9F411023F3C08A32D
:1016BA00034C8417A3031F224208012F4617A303D2
:1016CA002E460F91010000000000000000000000FB
:1016DA0000000000000000000041104444002E42B7
:1016EA0044000100000000002EC6F863044F4A2798
:1016FA00E5032E8610A2034F4A29E5033F841FC241
:10170A00073F841742002E861CA30731C61F6304B5
:10171A008E104288031C2184920131955152042172
:10172A008410C20771D71A630471CE9A73042EC645
:10173A0018A3032FC61742002EC658D3052FC65723
:10174A0052042E0607A3039F1042080131C618A3AC
:10175A000331C618150131C65A7704312AA2620428
:10176A0031464508011F2222C2070000000000007E
:10177A00000000000000000000000000000000005F
:10178A00000000000000000000000000000000004F
:10179A00000000000000000000000000000000003F
:1017AA00002E86F04300010305203B020000922030
:1017BA00EB737D5FDE3DA552EA7A14004A222229A4
:1017CA00BA2ED0050014C0010020A4126A2B9A7404
:1017DA00A372A338ED498F38CE2AA712AA2AAE4996
:1017EA00100410145444380E11152A250000EA5B1F
:1017FA00EB3A4F726B3BCF73CF134F7AED5B977413
:10180A00247B5D564972FD5B6F5B6F7BEF136F7FC5
:10181A00EF57CE3897246D7B6D2BED5FAD5AAD2413
:10182A00A77220474F4C44205452415020535445EC
:10183A00414C2100205041504552205343495353B3
:10184A004F525320524F434B0020515549540020C8
:10185A00474F4C44205452415020535445414C0068
:10186A00494620414C4C204C454453204F52205469
:10187A00455854205055534820444F574E204E4106
:10188A005600594F5520545241505045442054480F
:10189A00454D20594F552057494E00594F5520471D
:1018AA004F54205452415050454420594F55204CD2
:1018BA004F534500594F5520474F54203520474F25
:1018CA004C4420594F552057494E00696E7669613C
:1018DA006C6420456E642047616D65005448455923
:1018EA0020474F54203520474F4C4420594F55200C
:0618FA004C4F53450000B5
:00000001FF
