:100000000C943A000C9457000C9457000C94570031
:100010000C9457000C9457000C9457000C94570004
:100020000C9457000C9457000C9457000C945700F4
:100030000C9457000C9457000C9457000C945700E4
:100040000C9457000C9457000C9457000C945700D4
:100050000C9457000C9457000C9457000C945700C4
:100060000C9457000C9457000C9457000C945700B4
:100070000C94570011241FBECFEFD4E0DEBFCDBFDC
:1000800013E0A0E0B1E0E6E4F8E102C005900D92D3
:10009000A83FB107D9F724E0A8EFB3E001C01D9253
:1000A000AF30B207E1F70E942E0B0C94210C0C9498
:1000B00000000C9494010C94B5010C949A010C94DA
:1000C000A0010C94A6010E94A6010E94A001882311
:1000D000E1F38CE291E00197F1F70E949401811124
:1000E0000C945B0008950C94BC01CF93DF9300D077
:1000F0001F92CDB7DEB78091320190913301A0916C
:10010000340189839A83AB83509A589A0E9467017D
:100110008FE690E00E94FE0081E090E00E94560190
:1001200061E070E081E090E00E9442010E942E01B7
:10013000CE0101960E947C010F900F900F90DF91ED
:10014000CF910895CF93DF93DC01FB0160E070E075
:1001500080E0C1E0D0E08417C9F09191BE01092E82
:1001600002C0660F771F0A94E2F76F5F7F4F7695A4
:1001700067956A0F7B1F02C0769567959A95E2F79F
:100180006F3F710519F010F08F5FE5CFF9016083C3
:10019000DF91CF910895E1E6F0E080E8808310825E
:1001A000A89584B7877F84BFE0E6F0E0808188610E
:1001B0008083108208951092800084E080938100F3
:1001C000109285001092840008958091840090918F
:1001D00085000895AC0180918400909185009C0178
:1001E000241B350B283E3340B0F70895209184003E
:1001F00030918500820F931F0C94EA00CF93DF9318
:100200001F92CDB7DEB79E012F5F3F4F45E065E3FC
:1002100071E00E94A20091E0980F909300019981F3
:10022000915097BD18BC95B5977039F095B5209150
:1002300000012770987F922B95BD298130E0E82F2F
:10024000F0E0EB5CFE4FC901008002C0880F991FEF
:100250000A94E2F70F90DF91CF91089585B3897FDB
:1002600085BB85B5909100019770887F892B85BDEE
:10027000089585B5887F85BD089585B382FB88275D
:1002800080F90895009719F0019741F0089584B519
:100290008F736295660F660F607C05C084B56370CE
:1002A0006295607F8F7C682B64BD0895009741F054
:1002B000019759F484B58E7F84BD84B5826002C0F5
:1002C00084B58C7F84BD81E0089580E0089514BCDE
:1002D00015BC16BC18BC84B58E7F84BD84B5826005
:1002E00084BD81E008959C01215031093093CD00F7
:1002F00081508093CC000895CF93DF93EC018881E7
:1003000099810E9473018A819BEF980F943008F0C5
:1003100088E098E19093C9008550880F8093CA00C7
:1003200081E0DF91CF9108958091C800881F8827D0
:10033000881F08958091C80085FB882780F908955B
:100340008091C80086FB882780F90895CF93C82F35
:100350000E949A018823E1F38091C8008064809311
:10036000C800C093CE00CF9108958091C80087FF48
:10037000FCCF8091CE000895CF93DF93EC0189915B
:10038000882319F00E94A601FACFDF91CF9108953A
:10039000853098F4673088F421E030E001C0220F06
:1003A0006A95EAF7E82FF0E0E750FC4F922F90951E
:1003B000808189234111822B80830895853080F4C8
:1003C000673070F421E030E001C0220F6A95EAF74F
:1003D000E82FF0E0E750FC4F8081282381E009F40A
:1003E00080E008956091F803E62FF0E0E750FC4FBD
:1003F00080810E9440028091F8038F5F853018F45D
:100400008093F80308951092F8030895E9EFF3E05C
:100410001082118212821382148208950E941E0299
:100420000C9406029C01FC01FF2784A1832B84A36A
:1004300095A1892F832B85A381E00895CF93DF9326
:10044000C4E4D1E0899199910E94120281E0C23501
:10045000D807C1F783E090E40E94120280E090E8A0
:100460000E94120283E090E10E94120283E090E871
:100470000E94120283E090E2DF91CF910C9412026D
:10048000E091FE03F0E0EE0FFF1FE65CFE4F2081DF
:100490003181F901FF2795A1932B95A3E4E4F1E0C5
:1004A00097E020813181D901BB2795962C919597B2
:1004B00080FF03C03095232301C0232B95962C93F6
:1004C0008695915032969111ECCFE62FF0E0EE0F29
:1004D000FF1FE65CFE4F80819181FC01FF2785A113
:1004E0009095892385A36093FE030895623071057A
:1004F00019F170F46130710559F5FC01FF2724A151
:10050000392F3095922F932394A385A183231DC067
:100510006330710541F064307105D1F4FC01FF27AF
:1005200084A1892B0FC0FC01FF2784A1892B84A300
:1005300085A19095892309C0FC01FF2784A1292F5B
:100540002095822384A385A1892B85A381E008952A
:1005500080E00895E82FF0E0EE0FFF1FE150FC4F20
:100560008081882321F0918181E0892702C080E089
:1005700090E081700895E82FF0E0EE0FFF1FE1504A
:10058000FC4F8081811102C0818102C080E090E037
:1005900081700895E82FF0E0EE0FFF1FE150FC4F4F
:1005A00080810895E82FF0E0EE0FFF1FE150FC4F2F
:1005B000908181E0892708957F928F929F92AF92D8
:1005C000BF92CF92DF92EF92FF920F931F93CF9340
:1005D000DF93CFEFD3E052E5C52E51E0D52E66E094
:1005E000762E88818983F601019111916F0158015E
:1005F000BB24F50124A1E12EFF2485A190E08E21EA
:100600009F2130E02E213F21232B31F0892B51F403
:1006100033E0832E912C0DC0892B41F488248394E0
:10062000912C07C094E0892E912C03C082E0882E83
:10063000912C64E070E0C8010E94760262E070E0F4
:10064000C8010E947602872D8A95F1F7F50183A1F2
:1006500090E0E822F92281E0EF2809F080E0888329
:10066000B401C8010E9476022296F4E0C930DF0787
:1006700009F0B7CFDF91CF911F910F91FF90EF90CD
:10068000DF90CF90BF90AF909F908F907F90089514
:100690000895009789F0FC012381621B67FD09C062
:1006A000062E000C770B248130E081E0621773077F
:1006B0000CF080E08170089580E00895CF93DF937F
:1006C000FC01892B79F18181481760F59281291706
:1006D00048F59381A62FA91BA7FD24C00A2E000C64
:1006E000BB0BC481D0E0AC17BD07E4F4622F0E94BD
:1006F0008F0B480F858190E0BD010E94980B0696F4
:10070000242F269526952695E80FF91FE20FF11D57
:10071000808190E0477002C0959587954A95E2F7F1
:10072000817001C080E0DF91CF910895CF93DF9376
:10073000EC010E94DB009E0140E050E062E17AE7BC
:1007400080E090E00E94D10B30930C0420930B04C6
:10075000DF91CF9108958091090490910A040E943D
:10076000EA002091090430910A0480910B049091D1
:100770000C04820F931F90930A0480930904089538
:10078000692F0C94DE0141E0611101C040E0692F46
:100790000C94C8010C94C3035F926F927F928F9266
:1007A0009F92AF92BF92CF92DF92EF92FF920F9300
:1007B0001F93CF93DF93562E872E942E5C01E62E47
:1007C000F72EC62F660FDD0BC81BD10987FDD39509
:1007D000072F770F110B091B110997FD1395D7FFF1
:1007E00003C077247A9402C07724739417FF03C060
:1007F00066246A9402C066246394D7FF03C0D1952F
:10080000C195D10917FF03C0119501951109C017B2
:10081000D107A4F06E01D594C794F92EA51411F157
:10082000692D8A2D9F2D0E94C303C01AD10AD7FEBD
:1008300003C0CC0EDD1EF60CA70CF0CF6801D594DA
:10084000C794E82EB81471F0692D8E2D9B2D0E944F
:10085000C303CC1ADD0AD7FE03C0C00ED11EE70CBD
:10086000B60CF0CF692DC701DF91CF911F910F9189
:10087000FF90EF90DF90CF90BF90AF909F908F90C0
:100880007F906F905F900C94C303FF920F931F9320
:10089000CF93DF93D82FF92E162FC72F042F792F40
:1008A0000E94CC03402F6D2F7C2F8D2F9F2D0E94F7
:1008B000CC03402F612F7C2F812F9F2D0E94CC03D2
:1008C000402F612F7C2F8D2F9C2F0E94CC03DF9116
:1008D000CF911F910F91FF9008950E940602E1E0D1
:1008E000F1E0118A14860895DF92EF92FF920F9340
:1008F0001F93CF93DF93D82E7B01162F0F2D80915E
:10090000030190910401D0E0019799F50F2D0D1B83
:10091000E0910901F0910A018181C0E0D817B8F493
:100920008091090190910A01FC012281C21768F4AB
:100930002C2F4D2F6D2D0E945E03682F8E2D8C0F56
:10094000902F0E94C303CF5FEBCFDF5FDFCFE0913B
:100950000901F0910A018281C81740F460E08E2DF0
:100960008C0F902F0E94C303CF5FF1CF015030C096
:10097000DF5F1E2D1D0FE0910901F0910A018181B9
:10098000C0E0D817A8F48091090190910A01FC01F8
:100990002281C21768F72C2F4D2F6D2D0E945E0308
:1009A000682F812F9F2D9C0F0E94C303CF5FEBCF39
:1009B000E0910901F0910A018281C81740F460E0DA
:1009C000812F9F2D9C0F0E94C303CF5FF1CF1F5F2C
:1009D000812F902FDF91CF911F910F91FF90EF907A
:1009E000DF9008950F931F93CF938C01C0E0F8011F
:1009F00081918F01882341F00E947404BC01CF5F74
:100A0000853014F477FFF3CF8C2FCF911F910F9186
:100A100008950F931F93CF93DF9310920D0140938E
:100A20000E01109211010091090110910A010115A6
:100A3000110509F449C09B01EC01F8018181609125
:100A400007017091080190E00E94980BBC01809111
:100A50000B0190910C010E94A90BCB016AE070E0A0
:100A60000E94980B9093100180930F013093060120
:100A70002093050140E250E0BE0182E191E00E9436
:100A8000120C80910101909102010197E9F4FE019D
:100A900001900020E9F73197BF016C1B7D0BF80135
:100AA00081818F5F0E948F0B8150209103013091D3
:100AB00004012130310511F095E001C097E098174D
:100AC00018F48EEF80931101DF91CF911F910F9158
:100AD000089520910301309104012130310511F076
:100AE00070E001C076E04FEF60E00E9409050895D4
:100AF00090E090930801809307010895909302017C
:100B00008093010108959093040180930301089557
:100B100090930A0180930901089580910D049091AA
:100B20000E04019690930E0480930D0420910F0102
:100B3000309110018217930708F469C010920E04D7
:100B400010920D04E0910D01F0E0EF5FFE4F8189FE
:100B500081110AC080910E01823008F458C0815082
:100B600080930E0110920D0180910D0190E0FC0127
:100B7000EF5FFE4F2189222309F449C04091010112
:100B800050910201209111014115510521F0413090
:100B9000510599F024C0211122C060910501709186
:100BA00006018E5E9E4F0E94F20490E001979091A4
:100BB0000D01890F80930D0112C0609105017091A4
:100BC000060140910301509104014130510511F497
:100BD000720F01C0621B8E5E9E4F0E94F2048091D4
:100BE00011018F5F80931101082E000C990BE09189
:100BF0000901F0910A01218130E0281739073CF4FE
:100C00001092110180910D018F5F80930D010C9462
:100C1000F201CF93DF93C1E0D1E09B878A870E94E6
:100C20000E0284E190E09F838E83DF91CF910C943C
:100C30006D048130910529F0029731F488E693E044
:100C400005C08EE693E002C081E493E00C94690550
:100C50008130910521F0029721F480E5089583E524
:100C6000089582E508958130910521F0029721F4DD
:100C700084E5089583E5089587E40895833571F048
:100C8000843541F0873499F481E090E0633589F44C
:100C900080E00895633559F483E00AC0643521F09B
:100CA000673429F482E004C08FEF9FEF089581E05C
:100CB00090E00895823529F0833541F08035A9F41C
:100CC0000AC0633579F0623551F00FC0603551F0DC
:100CD000633529F00AC0623529F0603531F482E0CD
:100CE00090E0089581E090E0089580E090E008951C
:100CF0009C01FC01FF2795A1892F832B85A30895D3
:100D00009C01FC01FF2795A1832F8095892385A352
:100D100008959C01FC01FF2784A1832B84A395A146
:100D2000892F832B85A381E0089580E090E40E94C1
:100D3000890680E090E20E94890680E090E10E94AE
:100D4000890680E098E00E94890680E094E00E9495
:100D5000890680E092E00E94890680E091E00E948E
:100D6000890683E090E40E94890680E090E80E9472
:100D7000890683E090E10E94890683E090E80E9462
:100D8000890683E090E20C9489060E94950680E033
:100D900090E40E94780680E090E20E94780680E06D
:100DA00090E10E94780680E098E00E94780680E05A
:100DB00094E00E94780680E092E00E94780680E04D
:100DC00091E00E94780683E090E40E94780680E03B
:100DD00090E80E94780683E090E10E94780683E024
:100DE00090E80E94780683E090E20C9478060E94D6
:100DF000950680E090E40E94800680E090E20E94E8
:100E0000800680E090E10E94800680E098E00E94E9
:100E1000800680E094E00E94800680E092E00E94DC
:100E2000800680E091E00E94800683E090E40E94CA
:100E3000800680E090E80E94800683E090E10E94B6
:100E4000800683E090E80E94800683E090E20C94A4
:100E50008006CF93DF9388EB9BE00E9409060E94F7
:100E60006D041092800085E08093810010928200D2
:100E7000D0E0C0E08091840090918500853F914052
:100E800078F00E948D0561E0CE010E94C303CF5F20
:100E9000C73011F4DF5FC0E010928500109284002B
:100EA000D73041F781E090E0DF91CF910895CF9363
:100EB000DF9388EB9BE00E9409060E946D0410926C
:100EC000800085E08093810010928200D0E0C0E035
:100ED00080918400909185008D32914078F00E943D
:100EE0008D0561E0CE010E94C303CF5FC73011F4CE
:100EF000DF5FC0E01092850010928400D73041F788
:100F000081E090E0DF91CF910895CF93DF9388EB5C
:100F10009BE00E9409060E946D041092800085E00B
:100F20008093810010928200D0E0C0E00E948D0585
:100F300061E0CE010E94C303CF5FC73011F4DF5FD1
:100F4000C0E01092850010928400D83079F70E949A
:100F50006D0481E090E0DF91CF9108950F931F938E
:100F6000CF93DF9300D000D000D0CDB7DEB7082FED
:100F7000162F0E94CB000E94AB0880E2898397E580
:100F80009A830B838C838CE48D831E83CE01019620
:100F90000E94690510928500109284000E948D05C0
:100FA0000E94DC0284E00E94AA028823B9F381E057
:100FB00090E026960FB6F894DEBF0FBECDBFDF914E
:100FC000CF911F910F9108951F93CF93DF93CDB7CA
:100FD000DEB727970FB6F894DEBF0FBECDBF182F30
:100FE0000E94CB000E94AB0880E2898397E49A8339
:100FF0009FE49B839CE49C8394E49D838E831F8366
:10100000CE0101960E94690510928500109284001D
:101010000E948D050E94DC0284E00E94AA028823BF
:10102000B9F381E090E027960FB6F894DEBF0FBECB
:10103000CDBFDF91CF911F910895CF93C82F0E940C
:10104000CB000E94AB08C53319F089E893E002C0D9
:1010500080E893E00E946905109285001092840058
:101060000E948D050E94DC0284E00E94AA0288236F
:10107000B9F381E090E0CF910895FF920F931F9311
:10108000CF93DF93182FF62E042F0E94CB000E94DF
:10109000AB08133051F01F3F59F085E0F81659F0B6
:1010A000053059F4CFEDD3E008C0C6E9D3E005C060
:1010B000CFEAD3E002C0C8ECD3E0CE010E946905BC
:1010C00010928500109284000E94DC020E948D051F
:1010D00084E00E94AA028823B9F381E090E0DF91C6
:1010E000CF911F910F91FF9008959C01FC01FF2764
:1010F00084A1832B84A395A1892F832B85A381E0D1
:10110000089588EB9BE00E94960388EB9BE00E9489
:1011100009068CE591E00E94880584E60E94780526
:1011200080E090E00C94830584EF91E00E949603A8
:1011300084EF91E00E94090685EC92E00E94880508
:1011400081E090E00E94830583E00E94780581E0C1
:1011500090E00C947E0584EF91E00E94960384EF6A
:1011600091E00E94090685EC92E00E94880581E0EA
:1011700090E00E94830581E00E94780581E090E084
:101180000C947E0580E090E40E94750880E090E277
:101190000E94750880E090E10E94750880E098E068
:1011A0000E94750880E094E00E94750880E092E05B
:1011B0000E94750880E091E00E94750883E090E449
:1011C0000E94750880E090E80E94750883E090E135
:1011D0000E94750883E090E80E94750883E090E221
:1011E0000C947508CF93DF9300D0CDB7DEB7898319
:1011F0001A82CE0101960E9469050F900F90DF912F
:10120000CF9108958F929F92BF92CF92DF92EF92EB
:10121000FF920F931F93CF93DF931092800085E08E
:1012200080938100109282000E9475000E94480302
:1012300088EB9BE00E94960310E380E3B82E93E0D6
:10124000E92EF12C22E3C22ED12C0E94CB000E9469
:101250008108C0E0D0E002E5429A0E94AB030E9400
:101260008D050E94DC02802F0E94F20880E00E941F
:10127000AA02882331F0CE010196B7010E94BD0B6E
:10128000EC0182E00E94AA02882351F0CE0101976E
:10129000B7010E94BD0BEC01892B11F4C3E0D0E033
:1012A00084E00E94AA02882371F00E94C5060E9471
:1012B0006D040E948D051092850010928400812C8F
:1012C000912CC0E320C0CE010E942806082FC4CF75
:1012D0000E948D050E94DC020E945900882319F0AB
:1012E0000E945B00C82F8EEA8C0F823098F0C035C8
:1012F00089F084E00E94AA02882319F0802F0E94BE
:1013000063000E94DC028114910411F70E942907F6
:101310004C01F9CF8091840090918500069748F3A5
:10132000802F0E9463000E94C5060E946D040E94E7
:101330008D050E9485074298D0928500C092840056
:101340006C2F802F0E945A068130910519F41F5F7F
:10135000C7E506C0892B19F4B394CCE401C0C4E4FA
:1013600010928500109284008091840090918500F5
:10137000803C9D4530F40E948D058C2F0E94F20820
:10138000F3CF0E94C5066B2D812F0E94AE07892BDB
:10139000D1F3153319F085E3B81257CF812F0E948E
:1013A0001D08892BD9F380E090E0DF91CF911F9148
:1013B0000F91FF90EF90DF90CF90BF909F908F9014
:1013C00008958F929F92AF92BF92CF92DF92EF9249
:1013D000FF920F931F93CF93DF931092800085E0CD
:1013E00080938100109282000E9475000E94480341
:1013F00088EB9BE00E94960390E3B92E10E320E374
:10140000A22E33E0E32EF12C42E3C42ED12C0E9415
:10141000CB000E948108C0E0D0E007E40E94AB034B
:101420000E948D050E94DC02802F0E94F20880E05D
:101430000E94AA02882331F0CE010196B7010E94D2
:10144000BD0BEC0182E00E94AA02882351F0CE017C
:101450000197B7010E94BD0BEC01892B11F4C3E089
:10146000D0E084E00E94AA02882379F00E94C50699
:101470000E946D040E948D051092850010928400D8
:10148000C0E0D0E080E3982E1FC0CE010E9433065A
:10149000082FC4CF0E948D050E945900882319F09F
:1014A0000E945B00982E87E49816A1F08DEA890DC2
:1014B000823080F00E94DC0284E00E94AA0288232D
:1014C00019F0802F0E946300209721F70E94570790
:1014D000EC01FACF8091840090918500069750F33B
:1014E000802F0E9463000E94C5060E946D040E9426
:1014F0008D050E9485070E94C5060E946D040E940A
:101500008D050E948507692D802F0E943E06EC0103
:10151000019709F41F5F812C912C8114910429F506
:101520000E9457074C01209721F4812F0E946300ED
:1015300017C0C230D10541F40E945900882381F0C0
:101540000E945B00A82E0CC0CF3F8FEFD80719F088
:10155000C330D10529F40E94C5060E946D0405C060
:101560001092850010928400D8CF0E948D0520979C
:10157000C1F0C230D10529F480EDA80E10531A0D28
:1015800011C0CF3F8FEFD80719F0C330D10551F408
:101590000E94C5060E946D04CF3F8FEFD80781F5EA
:1015A00032C010E30E945900882319F00E945B00AA
:1015B000B82E80ED8B0D8630B0F480918400909130
:1015C0008500C39780F0812F0E9463000E94C506AA
:1015D0000E946D040E948D050E948507D0928500AF
:1015E000C092840015C0429A0E94DC0284E00E94EE
:1015F000AA02882309F491CF812F0E9463008DCF26
:10160000C330D10529F40E94C5060E946D0410C0A4
:101610000E94C506812F0E94E407892BD9F3CF3F92
:101620008FEFD80729F0153319F085E3B812EFCE04
:101630004B2D612F8C2F0E943D08892BC9F380E030
:1016400090E0DF91CF911F910F91FF90EF90DF908D
:10165000CF90BF90AF909F908F9008950F931F935E
:10166000CF93DF930E94CB000E9494080E9448030E
:1016700081E493E00E946905C0E0D0E003E010E05F
:101680000E948D050E94DC0280E00E94AA0288234D
:1016900051F00E946D04CE010196B8010E94BD0B6D
:1016A000EC010E94190682E00E94AA02882379F0C8
:1016B0000E946D04CE010197B8010E94BD0BEC01A0
:1016C000892B11F4C3E0D0E0CE010E94190684E01A
:1016D0000E94AA028823A1F20E946D04209719F4A7
:1016E0000E940209FBCFC130D10519F40E94E10923
:1016F000FACF86E593E00E9469050E94DC020E9411
:101700008D0584E00E94AA028823B9F30E946D042B
:1017100080E090E0DF91CF911F910F910895002418
:1017200080FD060E660F11F08695D1F7802D089585
:101730000024552704C0080E591F880F991F0097D1
:1017400029F076956795B8F37105B9F7802D952F37
:101750000895AA1BBB1B51E107C0AA1FBB1FA617F8
:10176000B70710F0A61BB70B881F991F5A95A9F74A
:1017700080959095BC01CD01089597FB072E16F436
:10178000009407D077FD09D00E94A90B07FC05D073
:101790003EF4909581959F4F0895709561957F4F88
:1017A0000895052E97FB1EF400940E94E80B57FD48
:1017B00007D00E94F00B07FC03D04EF40C94E80B0A
:1017C00050954095309521953F4F4F4F5F4F08956D
:1017D00090958095709561957F4F8F4F9F4F08959D
:1017E000A1E21A2EAA1BBB1BFD010DC0AA1FBB1F25
:1017F000EE1FFF1FA217B307E407F50720F0A21B97
:10180000B30BE40BF50B661F771F881F991F1A9403
:1018100069F760957095809590959B01AC01BD012D
:10182000CF010895FB01DC014150504048F0019088
:101830000D920020C9F701C01D9241505040E0F7C1
:061840000895F894FFCFAB
:10184600010000000000001400000000000000007D
:101856000000000000000000000000000000000082
:101866000000000000000000000000000000000072
:101876000000D00008000306080A03400080031099
:10188600038003200040002000100008000400022E
:101896000001038003400320008003100105072098
:1018A60047050000000000000000000000000000E6
:1018B6000000000000000000000000000000000022
:1018C6000000000000000000000000000000000012
:1018D6000000000000000000000000000000000002
:1018E60000000000000000000000020000000000F0
:1018F60000002EE63AA303C4104288032E4244C4D5
:10190600071F1104A30388A9F411023F3C08A3038F
:101916004C8417A3031F224208012F4617A3032E48
:10192600460F9101000000000000000000000000CA
:10193600000000000000000041104444002E424414
:10194600000100000000002EC6F863044F4A27E598
:10195600032E8610A2034F4A29E5033F841FC207C0
:101966003F841742002E861CA30731C61F63048ED0
:10197600104288031C21849201319551520421841E
:1019860010C20771D71A630471CE9A73042EC61853
:10199600A3032FC61742002EC658D3052FC657528B
:1019A600042E0607A3039F1042080131C618A3039D
:1019B60031C618150131C65A7704312AA26204319C
:1019C600464508011F2222C2070000000000000051
:1019D6000000000000000000000000000000000001
:1019E60000000000000000000000000000000000F1
:1019F60000000000000000000000000000000000E1
:101A06002E86F04300010305203B0200009220EBE6
:101A1600737D5FDE3DA552EA7A14004A222229BA76
:101A26002ED0050014C0010020A4126A2B9A74A3BC
:101A360072A338ED498F38CE2AA712AA2AAE4910CA
:101A46000410145444380E11152A250000EA5BEBE5
:101A56003A4F726B3BCF73CF134F7AED5B9774247B
:101A66007B5D564972FD5B6F5B6F7BEF136F7FEF9C
:101A760057CE3897246D7B6D2BED5FAD5AAD24A7FD
:101A8600722050415045522053434953534F5253AD
:101A960020524F434B0020574F524B20494E205067
:101AA600524F475245535300205155495400204741
:101AB6004F4C4420544849454620535445414C0018
:101AC600594F5520574F4E2100594F55204C4F53D3
:101AD60054203C2F3300594F552054524150504505
:101AE60044205448454D20594F552057494E0059DA
:101AF6004F5520474F542054524150504544205989
:101B06004F55204C4F534500594F5520474F5420B1
:101B16003520474F4C4420594F552057494E0054C5
:101B260048455920474F54203520474F4C442059AB
:081B36004F55204C4F534500B0
:00000001FF
